{
  "_format": "hh-sol-artifact-1",
  "contractName": "Poll",
  "sourceName": "contracts/Poll.sol",
  "abi": [
    {
      "inputs": [
        {
          "internalType": "string",
          "name": "_question",
          "type": "string"
        },
        {
          "internalType": "string[]",
          "name": "_options",
          "type": "string[]"
        }
      ],
      "stateMutability": "nonpayable",
      "type": "constructor"
    },
    {
      "inputs": [],
      "name": "getOptions",
      "outputs": [
        {
          "internalType": "string[]",
          "name": "",
          "type": "string[]"
        }
      ],
      "stateMutability": "view",
      "type": "function"
    },
    {
      "inputs": [
        {
          "internalType": "uint256",
          "name": "option",
          "type": "uint256"
        }
      ],
      "name": "getVotes",
      "outputs": [
        {
          "internalType": "uint256",
          "name": "",
          "type": "uint256"
        }
      ],
      "stateMutability": "view",
      "type": "function"
    },
    {
      "inputs": [
        {
          "internalType": "address",
          "name": "",
          "type": "address"
        }
      ],
      "name": "hasVoted",
      "outputs": [
        {
          "internalType": "bool",
          "name": "",
          "type": "bool"
        }
      ],
      "stateMutability": "view",
      "type": "function"
    },
    {
      "inputs": [
        {
          "internalType": "uint256",
          "name": "",
          "type": "uint256"
        }
      ],
      "name": "options",
      "outputs": [
        {
          "internalType": "string",
          "name": "",
          "type": "string"
        }
      ],
      "stateMutability": "view",
      "type": "function"
    },
    {
      "inputs": [],
      "name": "question",
      "outputs": [
        {
          "internalType": "string",
          "name": "",
          "type": "string"
        }
      ],
      "stateMutability": "view",
      "type": "function"
    },
    {
      "inputs": [
        {
          "internalType": "uint256",
          "name": "option",
          "type": "uint256"
        }
      ],
      "name": "vote",
      "outputs": [],
      "stateMutability": "nonpayable",
      "type": "function"
    },
    {
      "inputs": [
        {
          "internalType": "uint256",
          "name": "",
          "type": "uint256"
        }
      ],
      "name": "votes",
      "outputs": [
        {
          "internalType": "uint256",
          "name": "",
          "type": "uint256"
        }
      ],
      "stateMutability": "view",
      "type": "function"
    }
  ],
  "bytecode": "0x60806040523480156200001157600080fd5b506040516200121f3803806200121f8339818101604052810190620000379190620003e6565b8160009081620000489190620006b6565b508060019080519060200190620000619291906200006a565b5050506200079d565b828054828255906000526020600020908101928215620000b7579160200282015b82811115620000b6578251829081620000a59190620006b6565b50916020019190600101906200008b565b5b509050620000c69190620000ca565b5090565b5b80821115620000ee5760008181620000e49190620000f2565b50600101620000cb565b5090565b5080546200010090620004a5565b6000825580601f1062000114575062000135565b601f01602090049060005260206000209081019062000134919062000138565b5b50565b5b808211156200015357600081600090555060010162000139565b5090565b6000604051905090565b600080fd5b600080fd5b600080fd5b600080fd5b6000601f19601f8301169050919050565b7f4e487b7100000000000000000000000000000000000000000000000000000000600052604160045260246000fd5b620001c08262000175565b810181811067ffffffffffffffff82111715620001e257620001e162000186565b5b80604052505050565b6000620001f762000157565b9050620002058282620001b5565b919050565b600067ffffffffffffffff82111562000228576200022762000186565b5b620002338262000175565b9050602081019050919050565b60005b838110156200026057808201518184015260208101905062000243565b60008484015250505050565b6000620002836200027d846200020a565b620001eb565b905082815260208101848484011115620002a257620002a162000170565b5b620002af84828562000240565b509392505050565b600082601f830112620002cf57620002ce6200016b565b5b8151620002e18482602086016200026c565b91505092915050565b600067ffffffffffffffff82111562000308576200030762000186565b5b602082029050602081019050919050565b600080fd5b6000620003356200032f84620002ea565b620001eb565b905080838252602082019050602084028301858111156200035b576200035a62000319565b5b835b81811015620003a957805167ffffffffffffffff8111156200038457620003836200016b565b5b808601620003938982620002b7565b855260208501945050506020810190506200035d565b5050509392505050565b600082601f830112620003cb57620003ca6200016b565b5b8151620003dd8482602086016200031e565b91505092915050565b600080604083850312156200040057620003ff62000161565b5b600083015167ffffffffffffffff81111562000421576200042062000166565b5b6200042f85828601620002b7565b925050602083015167ffffffffffffffff81111562000453576200045262000166565b5b6200046185828601620003b3565b9150509250929050565b600081519050919050565b7f4e487b7100000000000000000000000000000000000000000000000000000000600052602260045260246000fd5b60006002820490506001821680620004be57607f821691505b602082108103620004d457620004d362000476565b5b50919050565b60008190508160005260206000209050919050565b60006020601f8301049050919050565b600082821b905092915050565b6000600883026200053e7fffffffffffffffffffffffffffffffffffffffffffffffffffffffffffffffff82620004ff565b6200054a8683620004ff565b95508019841693508086168417925050509392505050565b6000819050919050565b6000819050919050565b600062000597620005916200058b8462000562565b6200056c565b62000562565b9050919050565b6000819050919050565b620005b38362000576565b620005cb620005c2826200059e565b8484546200050c565b825550505050565b600090565b620005e2620005d3565b620005ef818484620005a8565b505050565b5b8181101562000617576200060b600082620005d8565b600181019050620005f5565b5050565b601f82111562000666576200063081620004da565b6200063b84620004ef565b810160208510156200064b578190505b620006636200065a85620004ef565b830182620005f4565b50505b505050565b600082821c905092915050565b60006200068b600019846008026200066b565b1980831691505092915050565b6000620006a6838362000678565b9150826002028217905092915050565b620006c1826200046b565b67ffffffffffffffff811115620006dd57620006dc62000186565b5b620006e98254620004a5565b620006f68282856200061b565b600060209050601f8311600181146200072e576000841562000719578287015190505b62000725858262000698565b86555062000795565b601f1984166200073e86620004da565b60005b82811015620007685784890151825560018201915060208501945060208101905062000741565b8683101562000788578489015162000784601f89168262000678565b8355505b6001600288020188555050505b505050505050565b610a7280620007ad6000396000f3fe608060405234801561001057600080fd5b506004361061007d5760003560e01c8063409e22051161005b578063409e2205146100ec5780635df813301461011c578063cc2ee1961461014c578063ff9810991461016a5761007d565b80630121b93f1461008257806309eef43e1461009e5780633fad9ae0146100ce575b600080fd5b61009c60048036038101906100979190610595565b61019a565b005b6100b860048036038101906100b39190610620565b6102f2565b6040516100c59190610668565b60405180910390f35b6100d6610312565b6040516100e39190610713565b60405180910390f35b61010660048036038101906101019190610595565b6103a0565b6040516101139190610713565b60405180910390f35b61013660048036038101906101319190610595565b61044c565b6040516101439190610744565b60405180910390f35b610154610464565b604051610161919061086b565b60405180910390f35b610184600480360381019061017f9190610595565b61053d565b6040516101919190610744565b60405180910390f35b60018054905081106101e1576040517f08c379a00000000000000000000000000000000000000000000000000000000081526004016101d8906108d9565b60405180910390fd5b600360003373ffffffffffffffffffffffffffffffffffffffff1673ffffffffffffffffffffffffffffffffffffffff16815260200190815260200160002060009054906101000a900460ff161561026e576040517f08c379a000000000000000000000000000000000000000000000000000000000815260040161026590610945565b60405180910390fd5b6001600360003373ffffffffffffffffffffffffffffffffffffffff1673ffffffffffffffffffffffffffffffffffffffff16815260200190815260200160002060006101000a81548160ff0219169083151502179055506002600082815260200190815260200160002060008154809291906102ea90610994565b919050555050565b60036020528060005260406000206000915054906101000a900460ff1681565b6000805461031f90610a0b565b80601f016020809104026020016040519081016040528092919081815260200182805461034b90610a0b565b80156103985780601f1061036d57610100808354040283529160200191610398565b820191906000526020600020905b81548152906001019060200180831161037b57829003601f168201915b505050505081565b600181815481106103b057600080fd5b9060005260206000200160009150905080546103cb90610a0b565b80601f01602080910402602001604051908101604052809291908181526020018280546103f790610a0b565b80156104445780601f1061041957610100808354040283529160200191610444565b820191906000526020600020905b81548152906001019060200180831161042757829003601f168201915b505050505081565b60026020528060005260406000206000915090505481565b60606001805480602002602001604051908101604052809291908181526020016000905b828210156105345783829060005260206000200180546104a790610a0b565b80601f01602080910402602001604051908101604052809291908181526020018280546104d390610a0b565b80156105205780601f106104f557610100808354040283529160200191610520565b820191906000526020600020905b81548152906001019060200180831161050357829003601f168201915b505050505081526020019060010190610488565b50505050905090565b600060026000838152602001908152602001600020549050919050565b600080fd5b6000819050919050565b6105728161055f565b811461057d57600080fd5b50565b60008135905061058f81610569565b92915050565b6000602082840312156105ab576105aa61055a565b5b60006105b984828501610580565b91505092915050565b600073ffffffffffffffffffffffffffffffffffffffff82169050919050565b60006105ed826105c2565b9050919050565b6105fd816105e2565b811461060857600080fd5b50565b60008135905061061a816105f4565b92915050565b6000602082840312156106365761063561055a565b5b60006106448482850161060b565b91505092915050565b60008115159050919050565b6106628161064d565b82525050565b600060208201905061067d6000830184610659565b92915050565b600081519050919050565b600082825260208201905092915050565b60005b838110156106bd5780820151818401526020810190506106a2565b60008484015250505050565b6000601f19601f8301169050919050565b60006106e582610683565b6106ef818561068e565b93506106ff81856020860161069f565b610708816106c9565b840191505092915050565b6000602082019050818103600083015261072d81846106da565b905092915050565b61073e8161055f565b82525050565b60006020820190506107596000830184610735565b92915050565b600081519050919050565b600082825260208201905092915050565b6000819050602082019050919050565b600082825260208201905092915050565b60006107a782610683565b6107b1818561078b565b93506107c181856020860161069f565b6107ca816106c9565b840191505092915050565b60006107e1838361079c565b905092915050565b6000602082019050919050565b60006108018261075f565b61080b818561076a565b93508360208202850161081d8561077b565b8060005b85811015610859578484038952815161083a85826107d5565b9450610845836107e9565b925060208a01995050600181019050610821565b50829750879550505050505092915050565b6000602082019050818103600083015261088581846107f6565b905092915050565b7f496e76616c6964206f7074696f6e000000000000000000000000000000000000600082015250565b60006108c3600e8361068e565b91506108ce8261088d565b602082019050919050565b600060208201905081810360008301526108f2816108b6565b9050919050565b7f596f7520616c726561647920766f746564000000000000000000000000000000600082015250565b600061092f60118361068e565b915061093a826108f9565b602082019050919050565b6000602082019050818103600083015261095e81610922565b9050919050565b7f4e487b7100000000000000000000000000000000000000000000000000000000600052601160045260246000fd5b600061099f8261055f565b91507fffffffffffffffffffffffffffffffffffffffffffffffffffffffffffffffff82036109d1576109d0610965565b5b600182019050919050565b7f4e487b7100000000000000000000000000000000000000000000000000000000600052602260045260246000fd5b60006002820490506001821680610a2357607f821691505b602082108103610a3657610a356109dc565b5b5091905056fea2646970667358221220a61cfe0eb8165e8dedfbde8bd3f8b331cf6f8003db05b33c645fc41c1f6c167264736f6c63430008140033",
  "linkReferences": {},
  "deployedLinkReferences": {}
}